:100000000C942A000C9447000C9447000C94470071
:100010000C9447000C9447000C9447000C94470044
:100020000C9447000C9447000C9447000C94470034
:100030000C9447000C9447000C9447000C94470024
:100040000C9447000C9447000C9447000C94470014
:100050000C94470011241FBECFE5D4E0DEBFCDBF16
:1000600010E0A0E6B0E0E2E9F1E002C005900D92F8
:10007000A036B107D9F710E0A0E6B0E001C01D92AC
:10008000A036B107E1F70E9475000C94C7000C94EC
:10009000000085EA88BB08958AEA88BB089584EA4F
:1000A00088BB089581EA88BB089586EA88BB9F993A
:1000B000FECF089589EA88BB9F99FECF089518BAAC
:1000C00008959A9909C09C9907C09B9905C09D996C
:1000D00003C00E944900F5CF9A9906C09C9904C0BC
:1000E0009B9902C09D9BEDCF08958FEF87BB14BAFB
:1000F00085BB18BA9A9909C09C9B07C09B9B05C0F9
:100100009D9903C00E944900F5CF9A9B09C09C9B12
:1001100007C09B9905C09D9903C00E944F00EACF7C
:100120009A9909C09C9907C09B9B05C09D9B03C0E1
:100130000E945200DFCF9A9B09C09C9B07C09B9BEB
:1001400005C09D9903C00E945500D4CF9A9909C05B
:100150009C9B07C09B9B05C09D9B03C00E945A00AF
:10016000C9CF9A9909C09C9907C09B9905C09D99D0
:1001700003C00E946100BECF9A9BBCCF9C9BBACFAC
:100180009B9BB8CF9D9BB6CF0E945F00B3CFF894E6
:02019000FFCF9F
:00000001FF
