:100000000C942A000C9447000C9447000C94470071
:100010000C9447000C9447000C9447000C94470044
:100020000C9447000C9447000C9447000C94470034
:100030000C9447000C9447000C9447000C94470024
:100040000C9447000C9447000C9447000C94470014
:100050000C94470011241FBECFE5D4E0DEBFCDBF16
:1000600010E0A0E6B0E0E6ECF0E002C005900D92F2
:10007000A036B107D9F710E0A0E6B0E001C01D92AC
:10008000A036B107E1F70E9449000C9461000C947E
:1000900000008FEF87BB81E088BB2FE332E44FE0A5
:1000A000215030404040E1F700C0000018BA2FE373
:1000B00032E44FE0215030404040E1F700C0000002
:0600C000EBCFF894FFCF26
:00000001FF
