:100000000C942A000C9447000C9447000C94470071
:100010000C9447000C9447000C9447000C94470044
:100020000C9447000C9447000C9447000C94470034
:100030000C9447000C9447000C9447000C94470024
:100040000C9447000C9447000C9447000C94470014
:100050000C94470011241FBECFE5D4E0DEBFCDBF16
:1000600010E0A0E6B0E0EEE4F4E002C005900D92EE
:10007000A036B107D9F710E0A0E6B0E001C01D92AC
:10008000A036B107E1F70E9459000C9425020C94A8
:10009000000080E487B983E886B9089597B1877036
:1000A000982B97B9369A349BFECF349A84B195B188
:1000B00008958FEF87BB0E944900FF24F39480E0EE
:1000C0000E944E009C01B901882777FD8095982FEA
:1000D0000E940E0120E030EC4FE754E40E94A4009F
:1000E00020E030E040EA50E40E94C20120E030E02D
:1000F00048EC52E40E94C201062F172FD82FC92FB7
:10010000862F912FAD2FBC2FBC01CD0120E030E018
:1001100040EF51E40E94BE01181684F4802F912F05
:10012000AD2FBC2FBC01CD0120E030E044E052E413
:100130000E94A000882314F418BAC1CFF8BABFCF28
:10014000A8D008F481E008950CD0DEC0D6D040F0ED
:10015000CDD030F021F45F3F19F0BFC0511108C17C
:10016000C2C0E3D098F39923C9F35523B1F3951B8B
:10017000550BBB27AA2762177307840738F09F5FC8
:100180005F4F220F331F441FAA1FA9F333D00E2E37
:100190003AF0E0E830D091505040E695001CCAF7A4
:1001A00029D0FE2F27D0660F771F881FBB1F261769
:1001B00037074807AB07B0E809F0BB0B802DBF013C
:1001C000FF2793585F4F2AF09E3F510568F085C086
:1001D000CFC05F3FECF3983EDCF38695779567954B
:1001E000B795F7959F5FC9F7880F911D96958795ED
:1001F00097F90895E1E0660F771F881FBB1F62170C
:1002000073078407BA0720F0621B730B840BBA0BC9
:10021000EE1F88F7E0950895E89409C097FB3EF437
:1002200090958095709561957F4F8F4F9F4F992343
:10023000A9F0F92F96E9BB279395F69587957795C1
:100240006795B795F111F8CFFAF4BB0F11F460FF81
:100250001BC06F5F7F4F8F4F9F4F16C0882311F0D9
:1002600096E911C0772321F09EE8872F762F05C0ED
:10027000662371F096E8862F70E060E02AF09A9588
:10028000660F771F881FDAF7880F9695879597F97D
:100290000895990F0008550FAA0BE0E8FEEF161617
:1002A0001706E807F907C0F012161306E407F5076A
:1002B00098F0621B730B840B950B39F40A2661F0DE
:1002C000232B242B252B21F408950A2609F4A14081
:1002D000A6958FEF811D811D089597F99F6780E88E
:1002E00070E060E008959FEF80EC089500240A9488
:1002F0001616170618060906089500240A94121601
:100300001306140605060895092E0394000C11F433
:10031000882352F0BB0F40F4BF2B11F460FF04C0E0
:100320006F5F7F4F8F4F9F4F089557FD9058440F39
:10033000551F59F05F3F71F04795880F97FB991F44
:1003400061F09F3F79F08795089512161306140601
:10035000551FF2CF4695F1DF08C01616170618068E
:10036000991FF1CF86957105610508940895E89469
:10037000BB2766277727CB0197F908958ADF08F412
:100380008FEF08950BD0C0CFB1DF28F0B6DF18F0A3
:10039000952309F0A2CFA7CF1124EACFC6DFA0F39F
:1003A000959FD1F3950F50E0551F629FF001729F0A
:1003B000BB27F00DB11D639FAA27F00DB11DAA1F29
:1003C000649F6627B00DA11D661F829F2227B00D76
:1003D000A11D621F739FB00DA11D621F839FA00D01
:1003E000611D221F749F3327A00D611D231F849F51
:1003F000600D211D822F762F6A2F11249F575040A8
:100400008AF0E1F088234AF0EE0FFF1FBB1F661F42
:10041000771F881F91505040A9F79E3F510570F0FB
:100420005CCFA6CF5F3FECF3983EDCF386957795E3
:100430006795B795F795E7959F5FC1F7FE2B880FF6
:0E044000911D9695879597F90895F894FFCF32
:00000001FF
