:100000000C942A000C9447000C9447000C94470071
:100010000C9447000C9447000C9447000C94470044
:100020000C9447000C9447000C9447000C94470034
:100030000C9447000C9447000C9447000C94470024
:100040000C9447000C9447000C9447000C94470014
:100050000C94470011241FBECFE5D4E0DEBFCDBF16
:1000600010E0A0E6B0E0E0EBF1E002C005900D92F8
:10007000A036B107D9F710E0A0E6B0E001C01D92AC
:10008000A036B107E1F70E9461000C94D6000C94F1
:10009000000085EA88BB08958AEA88BB089584EA4F
:1000A00088BB089581EA88BB089586EA88BB9F993A
:1000B000FECF089589EA88BB9F99FECF089518BAAC
:1000C00008958FEF87BB83E084BB82E085BB18BABD
:1000D0000E9449008FEF99E6A8E181509040A0402E
:1000E000E1F700C000009B9909C09D9B07C09A9B47
:1000F00005C09C9903C00E944900F5CF9B9B06C098
:100100009D9B04C09A9902C09C9B08C09B9909C002
:100110009D9B07C09A9905C09C9903C00E944F00FF
:10012000E2CF9B9906C09D9904C09A9B02C09C99FE
:1001300008C09B9909C09D9907C09A9B05C09C99CE
:1001400003C00E945200CFCF9B9B0BC09D9B09C058
:100150009A9B07C09C9905C09F9B03C00E945500B5
:10016000C2CF9B990BC09D9B09C09A9B07C09C9BCB
:1001700005C09F9B03C00E945A00B5CF9B9BB3CF85
:100180009D9BB1CF9A9BAFCF9C9BADCF9F99ABCF9F
:100190000E9449008FEF93ECA9E081509040A0406D
:1001A000E1F700C000000E945F009DCFF894FFCFF0
:00000001FF
