:100000000C9472000C9493000C9493000C94930045
:100010000C9493000C9493000C9493000C94930014
:100020000C9493000C9493000C9493000C94930004
:100030000C9493000C9493000C9493000C949300F4
:100040000C9493000C9493000C9493000C949300E4
:100050000C9493000C9493000C9493000C949300D4
:100060000C9493000C9493000C9493000C949300C4
:100070000C9493000C9493000C9493000C949300B4
:100080000C9493000C9493000C9493000C949300A4
:100090000C9493000C9493000C9493000C94930094
:1000A0000C9493000C9493000C9493000C94930084
:1000B0000C9493000C9493000C9493000C94930074
:1000C0000C9493000C9493000C9493000C94930064
:1000D0000C9493000C9493000C9493000C94930054
:1000E0000C94930011241FBECFEFD1E2DEBFCDBF31
:1000F00000E00CBF12E0A0E0B2E0E4E1F2E000E0DA
:100100000BBF02C007900D92A230B107D9F712E0E1
:10011000A2E0B2E001C01D92A230B107E1F70E9457
:10012000CE000C9408010C94000085B984E08BB9D2
:100130008FE99FE00197F1F700C000001BB88FEF37
:1001400090E7A2E081509040A040E1F700C000009D
:10015000089588E30E9495008FE99FE00197F1F7E9
:1001600000C0000081E00E9495008FE99FE00197A8
:10017000F1F700C000008EE00E9495008FE99FE03B
:100180000197F1F700C0000080E80E9495008FE918
:100190009FE00197F1F700C0000008958FEF84B948
:1001A00087E08AB90E94A9008FEF90E7A2E0815012
:1001B0009040A040E1F700C0000080E092E00E9483
:1001C000F90080E090E0089585B985E08BB98FE96A
:1001D0009FE00197F1F700C0000081E08BB98FEF3D
:1001E00090E7A2E081509040A040E1F700C00000FD
:1001F0000895CF93DF93EC018881882331F0219615
:100200000E94E40089918823D9F7DF91CF91089566
:04021000F894FFCF90
:020214004100A7
:00000001FF
