:100000000C942A000C9447000C9447000C94470071
:100010000C9447000C9447000C9447000C94470044
:100020000C9447000C9447000C9447000C94470034
:100030000C9447000C9447000C9447000C94470024
:100040000C9447000C9447000C9447000C94470014
:100050000C94470011241FBECFE5D4E0DEBFCDBF16
:1000600010E0A0E6B0E0E2EBF1E002C005900D92F6
:10007000A036B107D9F710E0A0E6B0E001C01D92AC
:10008000A036B107E1F70E9475000C94D7000C94DC
:10009000000085EA88BB08958AEA88BB089584EA4F
:1000A00088BB089581EA88BB089586EA88BB9F993A
:1000B000FECF089589EA88BB9F99FECF089518BAAC
:1000C00008959A9909C09C9907C09B9905C09D996C
:1000D00003C00E944900F5CF9A9906C09C9904C0BC
:1000E0009B9902C09D9BEDCF08958FEF87BB14BAFB
:1000F00085BB18BA9A9909C09C9B07C09B9B05C0F9
:100100009D9903C00E944900F5CF9A9B06C09C9B15
:1001100004C09B9902C09D9B08C09A9909C09C9BF2
:1001200007C09B9905C09D9903C00E944F00E2CF74
:100130009A9906C09C9904C09B9B02C09D9908C0D7
:100140009A9909C09C9907C09B9B05C09D9903C0C3
:100150000E945200CFCF9A9B09C09C9B07C09B9BDB
:1001600005C09D9903C00E945500C4CF9A9909C04B
:100170009C9B07C09B9B05C09D9B03C00E945A008F
:10018000B9CF9A9909C09C9907C09B9905C09D99C0
:1001900003C00E946100AECF9A9BACCF9C9BAACFBC
:1001A0009B9BA8CF9D9BA6CF0E945F00A3CFF894F6
:0201B000FFCF7F
:00000001FF
